:100000000C9447000C9468000C948F000C946400CE
:100010000C9464000C9464000C9464000C94F10142
:100020000C9418020C943F020C94C8010C945301D8
:100030000C947A010C94A1010C94DC000C94030143
:100040000C942A010C9464000C9464000C946400D9
:100050000C9464000C9464000C9464000C94640090
:100060000C9464000C946400942697269A269D268E
:10007000A026A326A626A926AC26AF26B226C726EA
:100080009827AB27BE27D127E4270F28472711241D
:100090001FBECFEFD8E0DEBFCDBF11E0A0E0B1E0E2
:1000A000E2E8F1E502C005900D92A036B107D9F75C
:1000B00021E0A0E6B1E001C01D92A538B207E1F74A
:1000C0000E94B5280C94BF280C94000000000895ED
:1000D0001F920F920FB60F9211242F933F934F93BD
:1000E0005F936F937F938F939F93AF93BF93EF93A0
:1000F000FF93E0910201F09103010995FF91EF91C7
:10010000BF91AF919F918F917F916F915F914F912F
:100110003F912F910F900FBE0F901F9018951F9237
:100120000F920FB60F9211242F933F934F935F932B
:100130006F937F938F939F93AF93BF93EF93FF93AF
:10014000E0910001F09101010995FF91EF91BF91BC
:10015000AF919F918F917F916F915F914F913F915F
:100160002F910F900FBE0F901F901895F999FECF09
:100170000895811524E0920768F4F999FECFF89468
:10018000FC98FD9892BD81BD60BDFA9AF99AF999E3
:10019000FECF78940895811524E0920748F4F999E8
:1001A000FECFF89492BD81BDF89A789480B50895F9
:1001B00080E00895000008951F920F920FB60F92ED
:1001C00011242F933F934F935F936F937F938F935C
:1001D0009F93AF93BF93EF93FF93E0910801F0914A
:1001E00009010995FF91EF91BF91AF919F918F9177
:1001F0007F916F915F914F913F912F910F900FBE23
:100200000F901F9018951F920F920FB60F92112406
:100210002F933F934F935F936F937F938F939F930E
:10022000AF93BF93EF93FF93E0910601F091070125
:100230000995FF91EF91BF91AF919F918F917F9120
:100240006F915F914F913F912F910F900FBE0F9043
:100250001F9018951F920F920FB60F9211242F9393
:100260003F934F935F936F937F938F939F93AF933E
:10027000BF93EF93FF93E0910401F091050109957D
:10028000FF91EF91BF91AF919F918F917F916F916E
:100290005F914F913F912F910F900FBE0F901F9044
:1002A0001895000008951F920F920FB60F92112417
:1002B0002F933F934F935F936F937F938F939F936E
:1002C000AF93BF93EF93FF93E0911001F091110171
:1002D0000995FF91EF91BF91AF919F918F917F9180
:1002E0006F915F914F913F912F910F900FBE0F90A3
:1002F0001F9018951F920F920FB60F9211242F93F3
:100300003F934F935F936F937F938F939F93AF939D
:10031000BF93EF93FF93E0910E01F0910F010995C8
:10032000FF91EF91BF91AF919F918F917F916F91CD
:100330005F914F913F912F910F900FBE0F901F90A3
:1003400018951F920F920FB60F9211242F933F937F
:100350004F935F936F937F938F939F93AF93BF93CD
:10036000EF93FF93E0910C01F0910D010995FF913E
:10037000EF91BF91AF919F918F917F916F915F911D
:100380004F913F912F910F900FBE0F901F90189596
:100390001F920F920FB60F9211242F933F934F93FA
:1003A0005F936F937F938F939F93AF93BF93EF93DD
:1003B000FF93E0910A01F0910B010995FF91EF91F4
:1003C000BF91AF919F918F917F916F915F914F916D
:1003D0003F912F910F900FBE0F901F901895000026
:1003E00008951F920F920FB60F9211242F933F93EF
:1003F0004F935F936F937F938F939F93AF93BF932D
:10040000EF93FF93E0911601F09117010995FF9189
:10041000EF91BF91AF919F918F917F916F915F917C
:100420004F913F912F910F900FBE0F901F901895F5
:100430001F920F920FB60F9211242F933F934F9359
:100440005F936F937F938F939F93AF93BF93EF933C
:10045000FF93E0911401F09115010995FF91EF913F
:10046000BF91AF919F918F917F916F915F914F91CC
:100470003F912F910F900FBE0F901F9018951F92D4
:100480000F920FB60F9211242F933F934F935F93C8
:100490006F937F938F939F93AF93BF93EF93FF934C
:1004A000E0911201F09113010995FF91EF91BF9135
:1004B000AF919F918F917F916F915F914F913F91FC
:1004C0002F910F900FBE0F901F9018950000089568
:1004D000F8942FE38DE093E0215080409040E1F7C5
:1004E00000C000005F981092670180E090E0DC019E
:1004F0000196A11DB11D803B21E792072BE0A207C9
:10050000B10509F058C0209167012F5F2093670162
:100510005F9A3091670120916601231708F056C059
:100520005D98289880E890EFAAEFB2E04B9926C03A
:100530000197A109B109D1F7289A5F9A5D9A4B9B5F
:10054000FECF8FE39DE023E0815090402040E1F713
:1005500000C00000E0916A01F0916B0109958FE7FE
:1005600094E82EE1815090402040E1F700C0000067
:1005700080916000886080936000FFCF8FE39DE0F2
:1005800023E0815090402040E1F700C00000E0915E
:100590006801F091690109958FE794E82EE1815097
:1005A00090402040E1F700C000008091600088602A
:1005B00080936000FFCF803422E492072FE0A207EF
:1005C000B10521F45F9880E090E0DC014B9B90CF77
:1005D0008FE39DE023E0815090402040E1F700C090
:1005E00000005F9878940895209A579A559A289811
:1005F0005F985D98E6E6F1E010828FEF818386E6F2
:1006000092E0938382839583848388E692E090933B
:1006100001018093000153985B98E99A7894E9E688
:10062000F0E080818B7F80838081877F8083089545
:10063000E6E6F1E080838FEF818308958091670182
:1006400008958FEF809367010895909369018093D7
:100650006801089590936B0180936A010895109248
:10066000850010928400E1E8F0E080818160808361
:1006700080818D7F808380818B7F808308958091AE
:1006800081008E7F80938100809181008D7F809397
:100690008100809181008B7F809381004A9B06C0FE
:1006A00085E893E090931101809310010895809163
:1006B00081008E7F80938100809181008D7F809367
:1006C0008100809181008B7F8093810080916C01FB
:1006D0008F5F80936C014A9915C080916C018A30BC
:1006E00098F08091730181110FC08FE393E0909394
:1006F00011018093100110926C0110926D01109203
:100700006E01089510926C010895809181008E7F92
:1007100080938100809181008D7F80938100809102
:1007200081008B7F8093810080916C018F5F80932B
:100730006C0180916E01880F80936E014A9905C00B
:1007400080916E01816080936E0180916C01883090
:10075000B1F4E0916D0181E08E0F80936D01F0E0C6
:1007600080916E01E459FE4F838310926E011092C6
:100770006C0180EC93E09093110180931001089537
:10078000809181008E7F80938100809181008D7F98
:1007900080938100809181008B7F809381004A9BB0
:1007A00007C080916D01833018F485E893E00FC095
:1007B0004A9909C080916D01833029F480916D01BF
:1007C0008093730102C01092730187E593E09093C8
:1007D0001101809310010895ECE6F1E0108211827E
:1007E00012821782E9E6F0E0808181608083808157
:1007F000826080838FE293E09093030180930201F3
:1008000052985A98E89A7894E0E8F0E080818E7FD8
:10081000808380818D7F8083E1E8F0E08081877F25
:10082000808380818F7E808387E593E090931101A0
:10083000809310018CEC96E090938900809388005F
:10084000AFE6B0E08C9182608C93789480818E7F4B
:10085000808380818D7F808380818B7F80830895DA
:10086000E1E8F0E080818E7F808380818D7F8083CE
:1008700080818B7F8083E898EFE6F0E080818D7F38
:100880008083109273010895FC0180917301882385
:10089000B9F180916F0120917001909171018227CF
:1008A00089132BC080916F01807C803831F5809155
:1008B000700187FF22C02091700130E020953095B3
:1008C000207E3327220F331F220F331F31832083D3
:1008D00080916F018F73282B93E0220F331F9A951D
:1008E000E1F731832083809170018770282B318359
:1008F00020831092730181E008951092730180E0CB
:100900000895109285001092840008951092850039
:1009100010928400E1E8F0E0808181608083808132
:100920008D7F808380818B7F80830895E1E8F0E074
:1009300080818E7F808380818D7F808380818B7F8B
:10094000808381E894E090930301809302011092E8
:1009500085001092840087EC94E0909311018093BD
:10096000100180E493E890938900809388008FEFD2
:100970009FEF90938B0080938A00808181608083B9
:1009800080818D7F808380818B7F8083089580919B
:1009900081008E7F80938100809181008D7F809384
:1009A0008100809181008B7F8093810080917B0109
:1009B000811136C086E894E0909303018093020190
:1009C0008CE395E0909311018093100180E194E015
:1009D000909389008093880084E89DE090938B0039
:1009E00080938A004A9B07C08FE3809374018091B3
:1009F00069008E7F05C0109274018091690081604A
:100A000080936900809169008260809369001092F0
:100A100075011092760110927B0110927701089572
:100A200081E894E090930301809302011092850085
:100A30001092840087EC94E0909311018093100150
:100A400080E493E890938900809388008FEF9FEF74
:100A500090938B0080938A008091810081608093C5
:100A60008100809181008D7F809381008091810041
:100A70008B7F809381000895809175018F5F8093B3
:100A8000750180917701880F809377014A9B05C09B
:100A90008091770181608093770180917501863024
:100AA00041F0809175018C3021F080917501823187
:100AB00071F5E091760181E08E0F80937601F0E090
:100AC00080917701909174018927EC58FE4F8483BF
:100AD00010927701809175018231C9F48091810073
:100AE0008E7F80938100809181008D7F8093810033
:100AF000809181008B7F8093810088E895E09093BE
:100B000011018093100110927601109275010895E1
:100B1000809175018F5F8093750180917701880FB7
:100B2000809377014A9B05C0809177018160809313
:100B3000770180917501863049F0809175018C3084
:100B400029F080917501823109F07FC0E091760132
:100B500081E08E0F80937601F0E0EC58FE4F948197
:100B600080917701209174018227981759F181E8CB
:100B700094E09093030180930201109285001092FB
:100B8000840087EC94E0909311018093100180E43D
:100B900093E890938900809388008FEF9FEF909364
:100BA0008B0080938A008091810081608093810016
:100BB000809181008D7F80938100809181008B7F67
:100BC00080938100809175018231E9F580918100E7
:100BD0008E7F80938100809181008D7F8093810042
:100BE000809181008B7F8093810083E080937B01E3
:100BF00081E894E0909303018093020110928500B4
:100C00001092840087EC94E090931101809310017E
:100C100080E493E890938900809388008FEF9FEFA2
:100C200090938B0080938A008091810081608093F3
:100C30008100809181008D7F80938100809181006F
:100C40008B7F80938100109277010895EF92FF923D
:100C50000F931F93CF93DF93E4E7F1E011821282A9
:100C6000178213821082E0E8F0E080818E7F80831B
:100C700080818D7F8083E1E8F0E08081877F8083C1
:100C800080818F7E808327EC34E0309311012093A4
:100C9000100186E994E090930F0180930E0141E8E2
:100CA00054E05093030140930201A9E6B0E08C9117
:100CB00081608C938C9182608C9352985A98E89AB8
:100CC000789468E870E000E413E8DB0111961C9367
:100CD0000E93AFE6B0E08C9182608C937894CAE872
:100CE000D0E0EE24EA94FE2CF982E8828C918460B4
:100CF0008C937894509303014093020110928500E5
:100D0000109284003093110120931001DB011196A1
:100D10001C930E93F982E8828081816080838081B8
:100D20008D7F808380818B7F8083DF91CF911F9126
:100D30000F91FF90EF900895E1E8F0E080818E7FC1
:100D4000808380818D7F808380818B7F8083E89802
:100D5000EFE6F0E080818D7F808380818B7F8083D0
:100D600010927B010895FC0180917B01882309F496
:100D70003EC0809179018F7039F480917A018F7330
:100D800019F410927B010895809179018C7061F5BE
:100D9000209178012F7380E4289F900111243183E2
:100DA0002083809179018073282B3695279536957D
:100DB000279531832083809179018370282B96E0D9
:100DC000220F331F9A95E1F73183208380917A01B6
:100DD0008C73282B3695279536952795318320835C
:100DE00010927B0181E0089510927B0180E00895CC
:100DF000E0916401F09165018091B1008E7F809354
:100E0000B1008091B1008D7F8093B1008091B100DD
:100E10008B7F8093B1008FEF8093B30090E080E0F0
:100E2000309779F1A281B3813C912091B2002317D0
:100E3000B8F0208135B12095232325B9218138B11F
:100E40002095232328B93681278140916201509152
:100E5000630157834683F0936301E09362010EC000
:100E60003C912091B300321718F42C912093B300D9
:100E700036812781968387839E2F8F2FE32FF22F32
:100E8000CFCF2091B3002F3F11F41092B300909375
:100E90006401809365018091B1008E7F8093B100E1
:100EA0008091B10082608093B1008091B100846034
:100EB0008093B1000895E0916201F0916301809107
:100EC000B1008E7F8093B1008091B1008D7F8093BF
:100ED000B1008091B1008B7F8093B1008FEF809340
:100EE000B30090E080E02091610130916001309783
:100EF00009F43EC023130FC02481222361F04581F1
:100F000022813381240F311D47FD3A95338322839B
:100F10002481215024832281338128513140F9F0EA
:100F2000208135B1232B25B9218138B1232B28B954
:100F3000A281B3813C912091B300321718F42C9117
:100F40002093B3003681278140916401509165015F
:100F500057834683F0936501E093640106C03681B0
:100F60002781968387839E2F8F2FE32FF22FBBCF6E
:100F700041E0420F40936101231303C021E020931D
:100F800061012091B3002F3F11F41092B3009093B0
:100F90006201809363018091B1008E7F8093B100E4
:100FA0008091B10082608093B1008091B100846033
:100FB0008093B100089594B19C6394B997B19F63F5
:100FC00097B9E0E6F1E0808381E0818315821482A5
:100FD00013821282E0EBF0E080818E7F808380813B
:100FE0008D7F8083E1EBF0E08081877F808388EFD5
:100FF00096E090931701809316018BE597E090930C
:101000001301809312011092B300A0E7B0E08C911D
:1010100082608C9378948C9181608C937894808199
:101020008E7F808380818D7F808380818B7F808392
:101030000895809160010C94DB07FC016C73608360
:101040007F7371831582148288E191E09383828398
:10105000178216820895FC01908185B1982B95B96D
:10106000818198B1892B88B90895FC01908125B1BF
:101070009095922395B9818198B18095892388B9FB
:101080000895CF93DF93DC01E1EBF0E080818E7F68
:10109000808380818D7F808380818B7F80836C7350
:1010A0006C937F7311967C93119715961C921597EC
:1010B00014961C92149788E191E013969C938E935A
:1010C0001297C0E6D1E08A819B8117969C938E93FC
:1010D0001697BB83AA8380818E7F80838081826004
:1010E0008083808184608083DF91CF910895BC01EB
:1010F000E0916401F09165019091B1009E7F909321
:10110000B1009091B1009D7F9093B1009091B1009A
:101110009B7F9093B100DF01AF013097B9F0E617E4
:10112000F70779F48681978117969C938E9316978B
:10113000452BB1F18091620190916301892B09F5F2
:101140002FC0DF010680F781E02DE7CF20916201FB
:1011500030916301D901F901309779F0E617F7076B
:1011600039F48681978117969C938E93169705C0C4
:10117000DF010680F781E02DEFCF452B89F0232B8F
:1011800079F08091B1008E7F8093B1008091B100A1
:1011900082608093B1008091B10084608093B1003F
:1011A0000895DC01E1EBF0E080818E7F8083808117
:1011B0008D7F808380818B7F80838C9195B180959A
:1011C000892385B911968C91119798B180958923BF
:1011D00088B96C736C937F7311967C9380818E7F3A
:1011E0008083808182608083808184608083089591
:1011F000FC01653658F58091B1008E7F8093B10077
:101200008091B1008D7F8093B1008091B1008B7F80
:101210008093B10015821482862F8695262F217027
:1012200030E0280F311D285E3E4F338322838091AA
:10123000B1008E7F8093B1008091B1008260809375
:10124000B1008091B10084608093B1000895FC01E9
:10125000653608F04AC08091B1008E7F8093B1005E
:101260008091B1008D7F8093B1008091B1008B7F20
:101270008093B10080916001262F269561708111C5
:101280000AC01582148270E0620F711D685E7E4F85
:10129000738362831BC08281938170E0620F711D32
:1012A000685E7E4F8617970730F421E02583681B20
:1012B000790B64830BC06817790730F42FEF25830F
:1012C000861B970B848302C0158214828091B10023
:1012D0008E7F8093B1008091B10082608093B100D5
:1012E0008091B10084608093B10008958EB38F5FC8
:1012F0008EBB883041F41EBA8AB58F5F8ABD9BB51C
:10130000891301C0289808951EBA1ABC209A2898FB
:1013100016BC84B58E7F84BD84B5826084BD85B5DE
:10132000877F85BD86E799E0909309018093080146
:1013300084EF87BDEEE6F0E0808182608083789460
:1013400085B5816085BD85B58D7F85BD85B584609A
:1013500085BD0895289A8AB5865F8BBD08952AB504
:10136000FC01208308952AB5FC019081822F891BFE
:101370000895FC01208131812115310511F4029677
:1013800004C02230310519F40A960C9427090895F7
:10139000FC01208131812115310519F460E00296AC
:1013A00005C02230310521F460E00A960C9427092B
:1013B0000895CF93DF93EC01888199818130910565
:1013C00041F46B89CE0102960E9427091982188286
:1013D0000BC0039749F46B89CE010A960E94270936
:1013E00082E090E099838883DF91CF9108956F9296
:1013F0007F928F929F92AF92BF92CF92DF92FF9295
:101400000F931F93CF93DF93CDB7DEB7C656D109A5
:101410000FB6F894DEBF0FBECDBF8FEF9FEFA7963C
:101420009FAF8EAFA797F0907F01FF0CF394F394DA
:1014300068E0CE018F5A9F4F0E941325CE018F592D
:101440009F4F0E944625CE0144960E946C25CE01F6
:1014500088960E946C25CE01CC960E946C25CE0108
:10146000805B9F4F0E946C2564E070E0CE01039684
:101470000E94410868E070E0CE010B960E9441088E
:1014800060E170E0CE0147960E94410860E270E0A2
:10149000CE014F960E94410860E078E0CE018B9625
:1014A0000E94410860E074E0CE01C3960E944108AA
:1014B00060E072E0CE01CF960E94410860E071E0EA
:1014C000CE01895B9F4F0E94410881E090E09A83A2
:1014D00089839E8B8D8B9AA789A79EAF8DAF6C89D0
:1014E000CE0103960E9427091A821982CE014596E1
:1014F0000E94D909CE0189960E94D909CE01CD96C4
:101500000E94D909612C712C88248A94982C93E02C
:10151000C92ED12CAA24A394B12C8FEF681678067B
:10152000B1F46C89CE0101960E94B90968A5CE017B
:1015300045960E94B9096CADCE0189960E94B90901
:1015400061966FAD6197CE01CD960E94B909E09189
:101550008301F0918401CE018B599F4F0995813011
:1015600009F0F2C0A7960EAD1FADA7970815190593
:1015700009F4EAC0A3968EAD9FADA397081719078B
:10158000A1F40E94AA09CE0144960E946C25CE01C6
:1015900088960E946C25CE01CC960E946C25CE01C7
:1015A000805B9F4F0E946C25D0C0A5968EAD9FADED
:1015B000A59708171907A1F40E94AA09CE0144961D
:1015C0000E947A25CE0188960E947A25CE01CC967B
:1015D0000E947A25CE01805B9F4F0E947A25B5C07C
:1015E00063968EAD9FAD63970817190771F40E943B
:1015F000AA0989819A81029708F4A7C0CE010196B1
:101600000E94C809BA82A98215C065968EAD9FADA9
:1016100065970817190789F40E94AA0989819A8198
:101620000297029708F491C0CE0101960E94C80962
:10163000DA82C982CE01439684C067968EAD9FAD93
:1016400067970817190771F40E94AA098D899E8966
:10165000029708F47AC0CE0145960E94C809BE8A56
:10166000AD8A15C069968EAD9FAD699708171907A9
:1016700089F40E94AA098D899E890297029708F42D
:1016800064C0CE0145960E94C809DE8ACD8ACE018B
:10169000879657C06B968EAD9FAD6B97081719074D
:1016A00071F40E94AA0989A59AA5029708F44DC071
:1016B000CE0189960E94C809BAA6A9A614C06D9643
:1016C0008EAD9FAD6D970817190781F40E94AA0986
:1016D00089A59AA502970297C0F1CE0189960E942A
:1016E000C809DAA6C9A6CE01CB962BC06F968EADDF
:1016F0009FAD6F970817190769F40E94AA098DAD6D
:101700009EAD029710F1CE01CD960E94C809BEAEE3
:10171000ADAE14C0A1968EAD9FADA1970817190765
:10172000A1F40E94AA098DAD9EAD0297029768F0C0
:10173000CE01CD960E94C809DEAECDAECE01815B52
:101740009F4F0E94AF0901C0840189819A818D7FDA
:10175000019751F4CE0143960E94B3098F1520F0F2
:10176000CE0101960E94D9098D899E898D7F0197AE
:1017700051F4CE0187960E94B3098F1520F0CE0157
:1017800045960E94D90989A59AA58D7F019751F4A4
:10179000CE01CB960E94B3098F1520F0CE01899619
:1017A0000E94D9098DAD9EAD8D7F019759F4CE0170
:1017B000815B9F4F0E94B3098F1520F0CE01CD961B
:1017C0000E94D9090E941E038F3F29F48FEF681AE7
:1017D000780A4801A2CE0E941E038823B9F30E9412
:1017E0001908CA59DF4F0FB6F894DEBF0FBECDBF40
:1017F000DF91CF911F910F91FF90DF90CF90BF901D
:10180000AF909F908F907F906F9008951F93CF938C
:10181000DF93FC01208131812115310511F40296FD
:1018200010C02230310511F442960BC0243031052E
:1018300069F4162FEC0142960E942709612FCE0110
:101840000A96DF91CF911F910C942709DF91CF91D8
:101850001F910895CF93DF93FC01208131812115E1
:10186000310519F460E0029611C02230310519F4F7
:1018700060E042960BC02430310561F4EC0160E079
:1018800042960E94270960E0CE010A96DF91CF912F
:101890000C942709DF91CF910895CF93DF93EC014A
:1018A000888199818130910541F46B8DCE0102963A
:1018B0000E942709198218821BC08330910541F4C8
:1018C0006B8DCE0142960E94270982E090E00EC007
:1018D000059771F46B8DCE0142960E9427096B8D9E
:1018E000CE010A960E94270984E090E099838883BC
:1018F000DF91CF9108954F925F926F927F928F9276
:101900009F92AF92BF92CF92DF92FF920F931F935D
:10191000CF93DF93CDB7DEB7CA54D1090FB6F89491
:10192000DEBF0FBECDBF8FEF9FEF2B969FAF8EAF69
:101930002B97F0907F01FF0CF394F39466E0CE01B7
:10194000C9960E941325CE018B5B9F4F0E944625AE
:10195000CE014C960E946C25CE01C8960E946C2543
:1019600064E070E0CE0103960E94410868E070E0F8
:10197000CE0143960E94410860E170E0CE010B96D3
:101980000E94410860E071E0CE014F960E9441083C
:1019900060E072E0CE018F960E94410860E074E042
:1019A000CE0187960E94410881E090E09A83898366
:1019B0009E8F8D8FCE0101960E944D0CCE014D96CB
:1019C0000E944D0CC12CD12C44244A94542C95E0F7
:1019D000A92EB12C23E0822E912C66246394712CC5
:1019E0008FEFC816D80651F46C8DCE0101960E9477
:1019F000060C68ADCE014D960E94060CE091830165
:101A0000F0918401CE01875B9F4F0995813009F0E9
:101A1000ABC02B960EAD1FAD2B970415150509F421
:101A2000A3C027968EAD9FAD27970817190759F4C5
:101A30000E94AA09CE014C960E946C25CE01C89640
:101A40000E946C2592C029968EAD9FAD29970817EC
:101A5000190759F40E94AA09CE014C960E947A25D2
:101A6000CE01C8960E947A2580C089AD9AAD08172C
:101A7000190771F40E94AA0989819A81029708F4D2
:101A800074C0CE0101960E942A0C7A82698213C02A
:101A90008BAD9CAD0817190789F40E94AA098981AA
:101AA0009A810297029708F460C0CE0101960E94C5
:101AB0002A0C9A828982CE014B9653C08DAD9EAD81
:101AC0000817190779F40E94AA0989819A81049755
:101AD000029708F44AC0CE0101960E942A0CBA82ED
:101AE000A982E9CF21968EAD9FAD219708171907DE
:101AF00069F40E94AA098D8D9E8D0297B0F1CE01E6
:101B00004D960E942A0C7E8E6D8E29C023968EAD36
:101B10009FAD23970817190771F40E94AA098D8DAC
:101B20009E8D0297029708F1CE014D960E942A0CD5
:101B30009E8E8D8E14C025968EAD9FAD259708176D
:101B4000190799F40E94AA098D8D9E8D049702971A
:101B500060F0CE014D960E942A0CBE8EAD8ECE0155
:101B6000C7960E94AF0901C0820189819A819C01B8
:101B70002D7F2130310511F0059751F4CE014B96A0
:101B80000E94B3098F1520F0CE0101960E944D0CE2
:101B90008D8D9E8D9C012D7F2130310511F0059793
:101BA00051F4CE01C7960E94B3098F1520F0CE01E3
:101BB0004D960E944D0C0E941E038F3F29F48FEF1B
:101BC000C81AD80A28010CCF0E941E038823B9F333
:101BD0000E941908C65BDF4F0FB6F894DEBF0FBE38
:101BE000CDBFDF91CF911F910F91FF90DF90CF90EC
:101BF000BF90AF909F908F907F906F905F904F902D
:101C000008951F93CF93DF93EC01162F888199815C
:101C1000009741F4CE0102960E942709612FCE0160
:101C20000A961AC08230910519F4CE014A9614C062
:101C30008430910541F4CE014A960E942709612F14
:101C4000CE01429609C0069761F4CE010A960E9421
:101C50002709612FCE018296DF91CF911F910C94BD
:101C60002709DF91CF911F910895CF93DF93EC0166
:101C700088819981009749F460E0CE0102960E9424
:101C8000270960E0CE010A961DC08230910521F43B
:101C900060E0CE014A9616C08430910549F460E0B8
:101CA000CE014A960E94270960E0CE0142960AC002
:101CB000069761F460E0CE010A960E94270960E071
:101CC000CE018296DF91CF910C942709DF91CF91BD
:101CD0000895CF93DF93EC0188819981813091053C
:101CE00069F46BA5CE0102960E9427096BA5CE016F
:101CF0000A960E942709198218822BC08330910509
:101D000041F46BA5CE014A960E94270982E090E03B
:101D10001EC08530910569F46BA5CE014A960E94DC
:101D200027096BA5CE0142960E94270984E090E026
:101D30000EC0079771F46BA5CE010A960E94270981
:101D40006BA5CE0182960E94270986E090E09983D8
:101D50008883DF91CF9108953F924F925F926F9267
:101D60007F928F929F92AF92BF92CF92DF92EF922B
:101D7000FF920F931F93CF93DF93CDB7DEB7CE566D
:101D8000D1090FB6F894DEBF0FBECDBF8FEF9FEF26
:101D9000AF969FAF8EAFAF9730907F01330C3394E7
:101DA000339468E0CE01875A9F4F0E941325CE01DD
:101DB00087599F4F0E944625CE018C960E946C2524
:101DC000CE01885A9F4F0E946C2564E070E0CE01DE
:101DD00003960E94410868E070E0CE010B960E94D5
:101DE000410860E170E0CE014B960E94410860E23C
:101DF00070E0CE0143960E94410860E078E0CE0199
:101E000083960E94410860E074E0CE018F960E94A4
:101E1000410860E072E0CE01C7960E94410860E090
:101E200071E0CE01895B9F4F0E94410860E070E243
:101E3000CE01CF960E94410860E070E1CE01815B47
:101E40009F4F0E94410881E090E09A8389839EA77A
:101E50008DA7CE0101960E94690ECE018D960E943B
:101E6000690EE12CF12C44244A94542C97E0C92E9D
:101E7000D12C25E0A22EB12C33E0832E912C6624A8
:101E80006394712C8FEFE816F80661F46CA5CE010F
:101E900001960E94010E69966FAD6997CE018D96ED
:101EA0000E94010EE0918301F0918401CE018359DB
:101EB0009F4F0995813009F0E0C0AF960EAD1FAD80
:101EC000AF970415150509F4D8C0AB968EAD9FAD3C
:101ED000AB970817190761F40E94AA09CE018C96E6
:101EE0000E946C25CE01885A9F4F0E946C25C6C067
:101EF000AD968EAD9FADAD970817190761F40E949E
:101F0000AA09CE018C960E947A25CE01885A9F4F4D
:101F10000E947A25B3C06B968EAD9FAD6B97081764
:101F2000190771F40E94AA0989819A81029708F41D
:101F3000A5C0CE0101960E94350E7A82698215C035
:101F40006D968EAD9FAD6D970817190789F40E94A5
:101F5000AA0989819A810297029708F48FC0CE015D
:101F600001960E94350E9A828982CE018B9682C09C
:101F70006F968EAD9FAD6F970817190779F40E9481
:101F8000AA0989819A810497029708F477C0CE0143
:101F900001960E94350EBA82A982E7CFA1968EAD36
:101FA0009FADA1970817190779F40E94AA098981A2
:101FB0009A810697029708F461C0CE0101960E94AB
:101FC000350EDA82C982D1CFA3968EAD9FADA3978D
:101FD0000817190771F40E94AA098DA59EA50297FA
:101FE00008F44CC0CE018D960E94350E7EA66DA6DB
:101FF0003EC0A5968EAD9FADA5970817190771F441
:102000000E94AA098DA59EA502970297B8F1CE015C
:102010008D960E94350E9EA68DA629C0A7968EADE0
:102020009FADA7970817190771F40E94AA098DA5FB
:102030009EA50497029710F1CE018D960E94350E51
:10204000BEA6ADA614C0A9968EAD9FADA9970817E0
:102050001907A1F40E94AA098DA59EA506970297CB
:1020600068F0CE018D960E94350EDEA6CDA6CE017B
:10207000895A9F4F0E94AF0901C0820189819A81CC
:10208000897F019751F4CE018B960E94B309831585
:1020900020F0CE0101960E94690E8DA59EA5897F34
:1020A000019759F4CE01895A9F4F0E94B3098315B5
:1020B00020F0CE018D960E94690E0E941E038F3F74
:1020C00029F48FEFE81AF80A2801DCCE0E941E03DB
:1020D0008823B9F30E941908C259DF4F0FB6F8944C
:1020E000DEBF0FBECDBFDF91CF911F910F91FF904B
:1020F000EF90DF90CF90BF90AF909F908F907F90A8
:102100006F905F904F903F9008951F93CF93DF9310
:10211000EC01162F88819981009741F4CE01029637
:102120000E942709612FCE010A9614C082309105C2
:1021300041F4CE0142960E942709612FCE014A96B2
:1021400009C0049761F4CE010A960E942709612F05
:10215000CE014296DF91CF911F910C942709DF9118
:10216000CF911F910895CF93DF93EC0188819981DE
:10217000009749F460E0CE0102960E94270960E0D2
:10218000CE010A9616C08230910549F460E0CE0176
:1021900042960E94270960E0CE014A960AC0049741
:1021A00061F460E0CE010A960E94270960E0CE014A
:1021B0004296DF91CF910C942709DF91CF9108953A
:1021C000CF93DF93EC01888199818130910569F487
:1021D0006BA1CE0102960E9427096BA1CE010A963F
:1021E0000E9427091982188226C08330910569F45C
:1021F0006BA1CE0142960E9427096BA1CE014A969F
:102200000E94270982E090E014C08530910569F4AE
:102210006BA1CE010A960E9427096BA1CE014296BE
:102220000E94270984E090E004C0079721F486E02B
:1022300090E099838883DF91CF9108953F924F92E8
:102240005F926F927F928F929F92AF92BF92CF9246
:10225000DF92EF92FF920F931F93CF93DF93CDB74F
:10226000DEB7CE55D1090FB6F894DEBF0FBECDBF95
:102270008FEF9FEF6F969FAF8EAF6F9730907F017C
:10228000330C3394339468E0CE01875B9F4F0E94F8
:102290001325CE01875A9F4F0E944625CE01849672
:1022A0000E946C25CE01885B9F4F0E946C2564E0E4
:1022B00070E0CE0103960E94410868E070E0CE0114
:1022C0000B960E94410860E170E0CE0143960E94A7
:1022D000410860E270E0CE014B960E94410860E048
:1022E00078E0CE01CF960E94410860E074E0CE0114
:1022F000C7960E94410860E072E0CE018F960E946E
:10230000410860E071E0CE0187960E94410881E0BB
:1023100090E09A8389839EA38DA3CE0101960E94AB
:10232000E010CE0185960E94E010E12CF12C4424AF
:102330004A94542C96E0C92ED12C25E0A22EB12C23
:1023400033E0832E912C66246394712C8FEFE81672
:10235000F80661F46CA1CE0101960E9485102996C1
:102360006FAD2997CE0185960E948510E09183017B
:10237000F0918401CE01835A9F4F0995813009F075
:10238000E0C06F960EAD1FAD6F970415150509F4EB
:10239000D8C06B968EAD9FAD6B970817190761F487
:1023A0000E94AA09CE0184960E946C25CE01885B0A
:1023B0009F4F0E946C25C6C06D968EAD9FAD6D97E8
:1023C0000817190761F40E94AA09CE0184960E9499
:1023D0007A25CE01885B9F4F0E947A25B3C02B9649
:1023E0008EAD9FAD2B970817190771F40E94AA09AB
:1023F00089819A81029708F4A5C0CE0101960E94B6
:10240000B3107A82698215C02D968EAD9FAD2D973F
:102410000817190789F40E94AA0989819A810297ED
:10242000029708F48FC0CE0101960E94B3109A82E1
:102430008982CE0183966DC02F968EAD9FAD2F976A
:102440000817190779F40E94AA0989819A810497CB
:10245000029708F477C0CE0101960E94B310BA82A9
:10246000A982E7CF61968EAD9FAD619708171907D6
:1024700079F40E94AA0989819A810697029708F443
:1024800061C0CE0101960E94B310DA82C9825AC09F
:1024900063968EAD9FAD63970817190771F40E947C
:1024A000AA098DA19EA1029708F44CC0CE01859681
:1024B0000E94B3107EA26DA229C065968EAD9FAD1D
:1024C00065970817190771F40E94AA098DA19EA1AA
:1024D00002970297B8F1CE0185960E94B3109EA292
:1024E0008DA214C067968EAD9FAD67970817190728
:1024F00099F40E94AA098DA19EA10497029710F158
:10250000CE0185960E94B310BEA2ADA2CE01895B1A
:102510009F4F0E94AF0916C069968EAD9FAD699717
:102520000817190779F40E94AA098DA19EA10697A0
:10253000029740F0CE0185960E94B310DEA2CDA294
:1025400001C0820189819A819C012D7F2130310552
:1025500011F0059751F4CE0183960E94B3098315BB
:1025600020F0CE0101960E94E0108DA19EA19C0159
:102570002D7F2130310511F0059759F4CE01895B8B
:102580009F4F0E94B309831520F0CE0185960E94CB
:10259000E0100E941E038F3F29F48FEFE81AF80A1B
:1025A0002801D4CE0E941E038823B9F30E94190883
:1025B000C25ADF4F0FB6F894DEBF0FBECDBFDF911A
:1025C000CF911F910F91FF90EF90DF90CF90BF9030
:1025D000AF909F908F907F906F905F904F903F90C3
:1025E0000895CF93DF93FC012081318121153105BE
:1025F00019F460E0029611C02230310519F460E050
:1026000042960BC02430310561F4EC0160E0429643
:102610000E94270960E0CE010A96DF91CF910C94C9
:102620002709DF91CF910895CF93DF93EC01888143
:102630009981009749F460E0CE0102960E94270933
:1026400060E0CE010A9616C08230910549F460E040
:10265000CE0142960E94270960E0CE014A960AC048
:10266000049761F460E0CE010A960E94270960E0B9
:10267000CE014296DF91CF910C942709DF91CF9143
:102680000895CF93DF93EC01888199818130910582
:1026900069F46BA1CE0102960E9427096BA1CE01BD
:1026A0000A960E9427091982188226C08330910554
:1026B00069F46BA1CE0142960E9427096BA1CE015D
:1026C0004A960E94270982E090E014C08530910567
:1026D00069F46BA1CE010A960E9427096BA1CE0175
:1026E00042960E94270984E090E004C0079721F4F5
:1026F00086E090E099838883DF91CF9108952F92AF
:102700003F924F925F926F927F928F929F92AF9281
:10271000BF92CF92DF92EF92FF920F931F93CF93CE
:10272000DF93CDB7DEB7C955D1090FB6F894DEBF38
:102730000FBECDBF8FEF9FEF65969FAF8EAF6597B2
:10274000F0907F01FF0CF394F3946696FFAE6697CA
:1027500067E0CE018F5B9F4F0E941325CE01815B06
:102760009F4F0E94462505E210E00C0F1D1F055EDD
:102770001F4FC8010E946C25CE0184960E946C25D3
:1027800064E070E0CE0187960E94410868E070E046
:10279000CE01C7960E94410860E170E0CE018F969D
:1027A0000E94410860E078E0CE0103960E94410853
:1027B00060E074E0CE010B960E9441086E0183E157
:1027C000C80ED11C60E072E0C6010E9441083E01C3
:1027D0009BE1690E711C60E071E0C3010E94410839
:1027E00081E090E09EA38DA39A838983FE01E05C43
:1027F000FF4F2F016081CE0187960E9427091EA2FC
:102800001DA2CE0101961C010E944113812C912C26
:10281000AA24AA94BA2C72016796CFAE67976896DD
:10282000DFAE689769966FAE69976A967FAE6A97D2
:10283000422C95E0692E712C202E512EEFEF8E1632
:102840009E0609F04AC0F70110818DA19EA1009754
:1028500021F4612FCE01879611C08230910521F4B9
:10286000612FCE01C7960AC0049751F4612FCE01A3
:10287000C7960E942709612FCE018F960E942709D3
:102880001CA189819A81009749F4612FCE0103969A
:102890000E942709612FCE010B961DC08230910541
:1028A00061F4612FC6010E942709612F69968FADDF
:1028B00069976A969FAD6A970EC0049771F4612F6D
:1028C000CE010B960E942709612F67968FAD6797FF
:1028D00068969FAD68970E942709E0918301F09167
:1028E0008401CE018D5A9F4F0995813009F0D1C0E6
:1028F00065960EAD1FAD65970A151B0509F4C9C095
:1029000061968EAD9FAD61970817190759F40E9423
:10291000AA09822D952D0E946C25CE0184960E94D5
:102920006C25B8C063968EAD9FAD639708171907E5
:1029300059F40E94AA09822D952D0E947A25CE0174
:1029400084960E947A25A6C023968EAD9FAD2397CC
:102950000817190781F40E94AA098DA19EA1029768
:1029600008F498C0CE0185960E94F11281E090E0B3
:102970009EA38DA317C025968EAD9FAD25970817F2
:10298000190799F40E94AA098DA19EA102970297A6
:1029900008F480C0CE0185960E94F112E3E0F0E0D9
:1029A000FEA3EDA3CE01CF965AC027968EAD9FAD64
:1029B00027970817190779F40E94AA098DA19EA1EB
:1029C0000497029708F466C0CE0185960E94F11222
:1029D0007EA26DA2E7CF29968EAD9FAD29970817ED
:1029E000190781F40E94AA0989819A81029708F443
:1029F00051C0842D932D0E94141381E090E09A839E
:102A000089832BC02B968EAD9FAD2B970817190786
:102A100081F40E94AA0989819A8102970297D0F1D4
:102A2000842D932D0E941413E3E0F0E0FA83E983F0
:102A300014C02D968EAD9FAD2D970817190791F4F0
:102A40000E94AA0989819A810497029718F1842D1E
:102A5000932D0E9414137A826982CE0183960E947C
:102A6000AF0918C02F968EAD9FAD2F970817190785
:102A700089F40E94AA0989819A810697029750F0E9
:102A8000842D932D0E94141386E090E09A8389830D
:102A900001C085018DA19EA19C012D7F21303105B2
:102AA00011F00597A9F5CE01CF960E94B30966965D
:102AB0009FAD6697891760F18DA19EA18130910528
:102AC00049F4F7016081CE0187960E9427091EA272
:102AD0001DA21EC08330910549F4F7016081CE012B
:102AE000C7960E94270982E090E010C0059781F404
:102AF000F7016081CE01C7960E942709F701608126
:102B0000CE018F960E94270984E090E09EA38DA3BA
:102B100089819A819C012D7F2130310511F0059723
:102B200069F4CE0183960E94B30966969FAD6697BD
:102B3000891720F0842D932D0E9441130E941E03BB
:102B40008F3F29F49FEF891A990A580177CE0E9486
:102B50001E038823B9F30E941908C75ADF4F0FB626
:102B6000F894DEBF0FBECDBFDF91CF911F910F91C3
:102B7000FF90EF90DF90CF90BF90AF909F908F909D
:102B80007F906F905F904F903F902F900895CF93DC
:102B9000DF93FC01208131812115310519F460E0BA
:102BA000029611C02230310519F460E042960BC044
:102BB0002430310561F4EC0160E042960E9427095F
:102BC00060E0CE010A96DF91CF910C942709DF9146
:102BD000CF910895CF93DF93EC018881998100977D
:102BE00069F460E0CE0102960E94270960E0CE0100
:102BF0000A960E94270981E090E01EC0823091056C
:102C000069F460E0CE0142960E94270960E0CE019F
:102C10004A960E94270983E090E00EC0049771F461
:102C200060E0CE010A960E94270960E0CE0142963C
:102C30000E94270985E090E099838883DF91CF91F6
:102C400008952F923F924F925F926F927F928F9250
:102C50009F92AF92BF92CF92DF92EF92FF920F932B
:102C60001F93CF93DF93CDB7DEB7CF55D1090FB602
:102C7000F894DEBF0FBECDBF8FEF9FEF6D969FAF75
:102C80008EAF6D97F0907F01FF0CF394F3946E96E6
:102C9000FFAE6E9767E0CE01875B9F4F0E941325C2
:102CA000CE01895A9F4F0E94462505E210E00C0F85
:102CB0001D1F0D5D1F4FC8010E946C25CE0184961B
:102CC0000E946C2564E070E0CE0187960E94410866
:102CD00068E070E0CE01C7960E94410860E170E0B4
:102CE000CE018F960E94410860E078E0CE01039605
:102CF0000E94410860E074E0CE010B960E944108FA
:102D00006E0183E1C80ED11C60E072E0C6010E9432
:102D100041085E019BE1A90EB11C60E071E0C501B4
:102D20000E94410881E090E09EA38DA39A8389834D
:102D30003E01E8E46E0E711CF3016081CE018796BE
:102D40000E9427091EA21DA2212C312C88248A94BE
:102D5000982C73016F96CFAE6F977D2C6A2C5B2CED
:102D600095E2A92EB12CAC0EBD1EF2E2AF0EB11C45
:102D7000402EA0961FAFA0979FEF2916390609F0A5
:102D800044C0F70110818DA19EA1009721F4612F0D
:102D9000CE01879611C08230910521F4612FCE01BA
:102DA000C7960AC0049751F4612FCE01C7960E94BE
:102DB0002709612FCE018F960E9427091CA18981C6
:102DC0009A81009749F4612FCE0103960E9427094A
:102DD000612FCE010B9617C08230910541F4612F0F
:102DE000C6010E942709612F862D952D0CC00497DE
:102DF00061F4612FCE010B960E942709612F6F9617
:102E00008FAD6F97972D0E942709E0918301F09174
:102E10008401CE01855A9F4F0995813009F0FCC08D
:102E20006D960EAD1FAD6D970815190509F4F4C028
:102E300069968EAD9FAD69970817190769F40E94CE
:102E4000AA09842DA0969FADA0970E946C25CE0163
:102E500084960E946C25E1C06B968EAD9FAD6B97FA
:102E60000817190769F40E94AA09842DA0969FAD3E
:102E7000A0970E947A25CE0184960E947A25CDC023
:102E80002B968EAD9FAD2B9708171907A9F40E94BA
:102E9000AA098DA19EA1029708F4BFC0CE01859614
:102EA0000E94C715CE0101960E94EA1581E090E0CC
:102EB0009EA38DA3C5011CC02D968EAD9FAD2D97F1
:102EC00008171907C1F40E94AA098DA19EA10297B3
:102ED000029708F4A2C0CE0185960E94C715E3E0D0
:102EE000F0E0FEA3EDA3C5010E94AF09CE018396D9
:102EF0000E94AF0992C02F968EAD9FAD2F970817F5
:102F0000190789F40E94AA098DA19EA1049702972E
:102F100008F483C0CE0185960E94C71585E090E035
:102F20009EA38DA3E0CF61968EAD9FAD61970817EC
:102F30001907B1F40E94AA0989819A81029708F4BD
:102F40006CC08DA19EA1029740F0CE0101960E9417
:102F5000EA15CE0183960E94AF09E1E0F0E03AC0A5
:102F600063968EAD9FAD639708171907B9F40E9459
:102F7000AA0989819A810297029708F44EC08DA10F
:102F80009EA1029740F0CE0101960E94EA15CE0163
:102F900083960E94AF0983E090E03BC065968EADBA
:102FA0009FAD659708171907C1F40E94AA09898186
:102FB0009A810497029788F18DA19EA1029740F013
:102FC000CE0101960E94EA15CE0183960E94AF09B8
:102FD000E5E0F0E0FA83E98320C067968EAD9FAD0F
:102FE000679708171907C9F40E94AA0989819A816D
:102FF0000697029790F08DA19EA1029740F0CE0116
:1030000001960E94EA15CE0183960E94AF0986E0E0
:1030100090E09A83898301C084018DA19EA19C01C7
:103020002D7F2130310511F00597A1F5C5010E94D2
:10303000B3096E969FAD6E97891760F18DA19EA121
:103040008130910549F4F7016081CE0187960E9495
:1030500027091EA21DA21EC08330910549F4F70165
:103060006081CE01C7960E94270982E090E010C0DF
:10307000059781F4F7016081CE01C7960E94270968
:10308000F7016081CE018F960E94270984E090E0CD
:103090009EA38DA389819A819C012D7F21303105CA
:1030A00019F0059709F049C08DA19EA1029708F477
:1030B00044C0CE0183960E94B3096E969FAD6E9771
:1030C0008917D8F189819A818130910569F46CA1C1
:1030D000CE0103960E9427096CA1CE010B960E9497
:1030E00027091A82198229C08330910561F46CA1E5
:1030F000C6010E9427096CA1862D952D0E942709E3
:10310000E2E0F0E018C08530910589F46CA1CE01B1
:103110000B960E9427096CA16F968FAD6F97972D24
:103120000E94270984E090E09A83898306C007976C
:1031300021F4E6E0F0E0FA83E9830E941E038F3F6A
:1031400029F48FEF281A380A480116CE0E941E0370
:103150008823B9F30E941908C15ADF4F0FB6F894BB
:10316000DEBF0FBECDBFDF91CF911F910F91FF90BA
:10317000EF90DF90CF90BF90AF909F908F907F9017
:103180006F905F904F903F902F900895CF93DF9373
:10319000EC0188819981009749F460E0CE010296A4
:1031A0000E94270960E0CE010A961DC08230910579
:1031B00021F460E0CE01429616C08430910549F4B6
:1031C00060E0CE0142960E94270960E0CE014A9657
:1031D0000AC0069761F460E0CE010A960E942709B2
:1031E00060E0CE018296DF91CF910C942709DF91A8
:1031F000CF910895CF93DF93EC0188819981009757
:1032000049F460E0CE0102960E94270960E0CE01F9
:103210000A9616C08230910549F460E0CE014296CC
:103220000E94270960E0CE014A960AC0049761F423
:1032300060E0CE010A960E94270960E0CE01429626
:10324000DF91CF910C942709DF91CF910895CF930F
:10325000DF93EC01888199818130910569F46BA13C
:10326000CE0102960E9427096BA1CE010A960E9408
:1032700027091982188226C08330910569F46BA151
:10328000CE0142960E9427096BA1CE014A960E9468
:10329000270982E090E014C08530910569F46BA1A4
:1032A000CE010A960E9427096BA1CE0142960E9488
:1032B000270984E090E004C0079721F486E090E0BD
:1032C00099838883DF91CF9108952F923F924F92F7
:1032D0005F926F927F928F929F92AF92BF92CF92A6
:1032E000DF92EF92FF920F931F93CF93DF93CDB7AF
:1032F000DEB7C157D1090FB6F894DEBF0FBECDBF00
:103300008FEF9FEFA7969FAF8EAFA79780917F011A
:10331000880F8E5FA8968FAFA89768E0CE018F5A6E
:103320009F4F0E941325CE018F599F4F0E94462523
:10333000CE018C960E946C250DE210E00C0F1D1F33
:103340000D5D1F4FC8010E946C2564E070E0CE0146
:1033500003960E94410868E070E0CE010B960E943F
:10336000410860E170E0CE0143960E94410860E2AE
:1033700070E0CE014B960E94410860E070E2CE0101
:1033800083960E9441087E018FE2E80EF11C60E006
:1033900078E0C7010E9441082E0197E3490E511CB5
:1033A00060E074E0C2010E9441083E018FE3680EB4
:1033B000711C60E072E0C3010E9441088DE2882E1A
:1033C000912C8C0E9D1E9AE1890E911C60E071E09B
:1033D000C4010E94410881E090E09A8389839EA7FE
:1033E0008DA76CA5CE0103960E9427096CA5CE017E
:1033F0000B960E9427091A821982CE018D960E948F
:103400002719A12CB12CCC24CA94DC2CA9964FAE40
:10341000A997AA965FAEAA97AB966FAEAB97AC96FC
:103420007FAEAC97AF968FAEAF97E0969FAEE0972A
:10343000E196EFAEE197E296FFAEE29727E0222E0B
:10344000312C35E0432E512C4DE2E42EF12CEC0EC4
:10345000FD1E82E2E80EF11C53E0852E912C6624BD
:103460006394712CAD960FAFAD97AE961FAFAE972C
:103470008FEFA816B80609F06DC01CA589819A8146
:10348000009749F4612FCE0103960E942709612F0E
:10349000CE010B961DC08230910521F4612FCE0123
:1034A000439616C08430910549F4612FCE014396AE
:1034B0000E942709612FCE014B960AC0069751F44E
:1034C000612FCE010B960E942709612FCE018396B2
:1034D0000E94270961961FAD61978DA59EA5009753
:1034E00089F4612FE1968FADE197E2969FADE29767
:1034F0000E942709612FA9968FADA997AA969FAD23
:10350000AA9726C08230910589F4612FAB968FADC2
:10351000AB97AC969FADAC970E942709612FAF96F1
:103520008FADAF97E0969FADE09712C0049791F4EE
:10353000612FA9968FADA997AA969FADAA970E94D1
:103540002709612FAB968FADAB97AC969FADAC972B
:103550000E942709E0918301F0918401CE018B59EB
:103560009F4F0995813009F0E4C0A7960EAD1FADBD
:10357000A7970C151D0509F4DCC0A3968EAD9FAD71
:10358000A3970817190779F40E94AA09AD968FAD81
:10359000AD97AE969FADAE970E946C25CE018C96EE
:1035A0000E946C25C7C0A5968EAD9FADA597081744
:1035B000190779F40E94AA09AD968FADAD97AE9622
:1035C0009FADAE970E947A25CE018C960E947A25F7
:1035D000B1C063968EAD9FAD63970817190771F45C
:1035E0000E94AA0989819A81029708F4A3C0CE019A
:1035F00001960E94C6187A82698215C065968EADC2
:103600009FAD65970817190789F40E94AA09898157
:103610009A810297029708F48DC0CE0101960E940C
:10362000C6189A828982CE018B966BC067968EAD42
:103630009FAD67970817190779F40E94AA09898135
:103640009A810497029708F475C0CE0101960E94F2
:10365000C6185A824982E7CF69968EAD9FAD6997A9
:103660000817190779F40E94AA0989819A81069797
:10367000029708F45FC0CE0101960E94C6183A82F4
:103680002982D1CF6B968EAD9FAD6B970817190726
:1036900071F40E94AA098DA59EA5029708F44AC05C
:1036A000CE018D960E94FA187EA66DA629C06D9651
:1036B0008EAD9FAD6D970817190771F40E94AA0986
:1036C0008DA59EA502970297A8F1CE018D960E9426
:1036D000FA189EA68DA614C06F968EAD9FAD6F97FB
:1036E0000817190789F40E94AA098DA59EA50497B9
:1036F000029700F1CE018D960E94FA185EA64DA6A3
:10370000C7010E94AF0916C0A1968EAD9FADA197CB
:103710000817190779F40E94AA098DA59EA5069796
:10372000029740F0CE018D960E94FA183EA62DA673
:1037300001C0860189819A81897F019709F046C07D
:10374000CE018B960E94B309A8969FADA8978917C2
:10375000E8F189819A818130910569F46CA5CE01E7
:1037600003960E9427096CA5CE010B960E9427099B
:103770001A8219822BC08330910541F46CA5CE01C9
:1037800043960E94270982E090E01EC08530910593
:1037900069F46CA5CE0143960E9427096CA5CE0161
:1037A0004B960E94270984E090E00EC0079771F4C1
:1037B0006CA5CE010B960E9427096CA5CE018396BD
:1037C0000E94270986E090E09A8389838DA59EA5B3
:1037D0009C012D7F2130310511F0059761F4C7015F
:1037E0000E94B309A8969FADA897891720F0CE0133
:1037F0008D960E9427190E941E038F3F29F49FEF88
:10380000A91AB90A680134CE0E941E038823B9F3AD
:103810000E941908CF58DF4F0FB6F894DEBF0FBED5
:10382000CDBFDF91CF911F910F91FF90EF90DF906F
:10383000CF90BF90AF909F908F907F906F905F9050
:103840004F903F902F900895CF93DF93EC018881A4
:103850009981009749F460E0CE0102960E94270901
:1038600060E0CE010A961DC08230910521F460E02F
:10387000CE014A9616C08430910549F460E0CE012D
:103880004A960E94270960E0CE0142960AC0069738
:1038900061F460E0CE010A960E94270960E0CE0143
:1038A0008296DF91CF910C942709DF91CF910895F3
:1038B000CF93DF93EC0188819981009769F460E0F0
:1038C000CE0102960E94270960E0CE010A960E946E
:1038D000270981E090E01EC08230910569F460E024
:1038E000CE0142960E94270960E0CE014A960E94CE
:1038F000270983E090E00EC0049771F460E0CE01E8
:103900000A960E94270960E0CE0142960E9427098C
:1039100085E090E099838883DF91CF9108952F927D
:103920003F924F925F926F927F928F929F92AF924F
:10393000BF92CF92DF92EF92FF920F931F93CF939C
:10394000DF93CDB7DEB7C157D1090FB6F894DEBF0C
:103950000FBECDBF8FEF9FEFA7969FAF8EAFA797FC
:1039600080917F01880F8E5FAC968FAFAC9768E037
:10397000CE018F5A9F4F0E941325CE018F599F4F22
:103980000E944625CE018C960E946C250DE210E027
:103990000C0F1D1F0D5D1F4FC8010E946C2564E0B8
:1039A00070E0CE0103960E94410868E070E0CE010D
:1039B0000B960E94410860E170E0CE014B960E9498
:1039C000410860E270E0CE0143960E9441087E010A
:1039D00083E2E80EF11C60E070E2C7010E9441083A
:1039E00060E078E0CE018F960E9441082E0197E3B7
:1039F000490E511C60E074E0C2010E9441083E0182
:103A00008FE3680E711C60E072E0C3010E94410800
:103A10008DE2882E912C8C0E9D1E9AE1890E911CB0
:103A200060E071E0C4010E94410881E090E09A8367
:103A300089839EA78DA76CA5CE0103960E942709B6
:103A40006CA5CE010B960E9427091A821982A12C1F
:103A5000B12CCC24CA94DC2CA8964FAEA897A9967A
:103A60005FAEA997AA966FAEAA97AB967FAEAB97BB
:103A7000AD968FAEAD97AE969FAEAE97AF96EFAECA
:103A8000AF97E096FFAEE09727E0222E312C3DE283
:103A9000E32EF12CEC0EFD1E82E2E80EF11C45E057
:103AA000442E512C53E0852E912C66246394712C66
:103AB000E1960FAFE197E2961FAFE2978FEFA8165E
:103AC000B80609F06DC01CA589819A81009749F458
:103AD000612FCE0103960E942709612FCE010B961C
:103AE00021C08230910521F4612FCE014B961AC07E
:103AF0008430910549F4612FCE014B960E9427092D
:103B0000612FCE0143960EC0069771F4612FCE014E
:103B10000B960E942709612FAF968FADAF97E09665
:103B20009FADE0970E94270961961FAD61978DA513
:103B30009EA5009769F4612FCE018F960E942709F8
:103B4000612FA8968FADA897A9969FADA99726C07B
:103B50008230910589F4612FAA968FADAA97AB9612
:103B60009FADAB970E942709612FAD968FADAD97A2
:103B7000AE969FADAE9712C0049791F4612FA896B0
:103B80008FADA897A9969FADA9970E942709612F8D
:103B9000AA968FADAA97AB969FADAB970E942709C7
:103BA000E0918301F0918401CE018B599F4F0995DB
:103BB000813009F01DC1A7960EAD1FADA7970C155A
:103BC0001D0509F415C1A3968EAD9FADA3970817E7
:103BD000190779F40E94AA09CE018C960E946C25DF
:103BE000E1968FADE197E2969FADE2970E946C253A
:103BF00000C1A5968EAD9FADA5970817190779F45A
:103C00000E94AA09CE018C960E947A25E1968FAD7A
:103C1000E197E2969FADE2970E947A25EAC063960B
:103C20008EAD9FAD63970817190791F40E94AA09FA
:103C300089819A81029708F4DCC0CE0101960E9426
:103C4000241CCE018D960E94581C7A8269824CC039
:103C500065968EAD9FAD659708171907B1F40E9460
:103C6000AA0989819A810297029708F4C2C0CE01FD
:103C700001960E94241C9A828982CE018B960E9412
:103C8000AF09C7010E94AF09B4C067968EAD9FAD62
:103C900067970817190779F40E94AA0989819A8100
:103CA0000497029708F4A5C0CE0101960E94241C37
:103CB0005A824982E2CF69968EAD9FAD6997081707
:103CC0001907A9F40E94AA0989819A810697029787
:103CD00008F48FC0CE0101960E94241CCE018D965F
:103CE0000E94581C3A822982CE018B96CBCF6B96CC
:103CF0008EAD9FAD6B9708171907C9F40E94AA09EA
:103D00008DA59EA5029708F474C089819A8182309E
:103D1000910550F00697029738F0CE018D960E94DB
:103D2000581CC7010E94AF097EA66DA662C06D96A1
:103D30008EAD9FAD6D9708171907D1F40E94AA099F
:103D40008DA59EA50297029708F453C089819A8198
:103D50008230910550F00697029738F0CE018D968B
:103D60000E94581CC7010E94AF099EA68DA641C0A3
:103D70006F968EAD9FAD6F9708171907C9F40E9413
:103D8000AA098DA59EA50497029798F189819A8129
:103D90008230910550F00697029738F0CE018D964B
:103DA0000E94581CC7010E94AF095EA64DA621C003
:103DB000A1968EAD9FADA19708171907D1F40E9467
:103DC000AA098DA59EA50697029798F089819A81E8
:103DD0008230910550F00697029738F0CE018D960B
:103DE0000E94581CC7010E94AF093EA62DA601C023
:103DF000860189819A81897F019709F04BC0CE01A4
:103E00008B960E94B309AC969FADAC97891708F4C6
:103E100041C089819A818130910569F46CA5CE01F8
:103E200003960E9427096CA5CE010B960E942709D4
:103E30001A8219822FC08330910541F46CA5CE01FE
:103E40004B960E94270982E090E022C085309105C0
:103E500069F46CA5CE014B960E9427096CA5CE0192
:103E600043960E94270984E090E012C0079791F4DE
:103E70006CA5CE010B960E9427096CA5AF968FAD5D
:103E8000AF97E0969FADE0970E94270986E090E00B
:103E90009A8389838DA59EA59C012D7F21303105B4
:103EA00019F0059709F06BC089819A8182309105DC
:103EB00008F465C00697029708F461C0C7010E9424
:103EC000B309AC969FADAC97891708F458C08DA57F
:103ED0009EA581309105A9F461966FAD6197CE01E1
:103EE0008F960E94270961966FAD6197A8968FAD56
:103EF000A897A9969FADA9970E9427091EA61DA65F
:103F00003EC083309105C9F461966FAD6197AA9662
:103F10008FADAA97AB969FADAB970E94270961968C
:103F20006FAD6197AD968FADAD97AE969FADAE97E5
:103F30000E94270982E090E020C085309105C9F4F5
:103F400061966FAD6197A8968FADA897A9969FAD22
:103F5000A9970E94270961966FAD6197AA968FADC8
:103F6000AA97AB969FADAB970E94270984E090E09B
:103F700004C0079721F486E090E09EA78DA70E94D9
:103F80001E038F3F29F49FEFA91AB90A680196CD45
:103F90000E941E038823B9F30E941908CF58DF4FEF
:103FA0000FB6F894DEBF0FBECDBFDF91CF911F914A
:103FB0000F91FF90EF90DF90CF90BF90AF909F90C8
:103FC0008F907F906F905F904F903F902F900895CB
:103FD000FC01638502960C9427099F92AF92BF92D1
:103FE000CF92DF92EF92FF920F931F93CF93DF93C5
:103FF000CDB7DEB7E6970FB6F894DEBF0FBECDBFE4
:104000008FEF9FEF9EAB8DAB00917F01000F0E5F96
:1040100062E0CE01C1960E941325CE010C960E944B
:104020006C25CE0148960E946C25CE0184960E9494
:104030006C25CE01C0960E946C2581E00E94DB07B2
:104040006CE070E0CE0103960E94410860E370E0EE
:10405000CE010F960E94410860E07AE0CE014B96B7
:104060000E94410860E075E0CE0187960E944108F9
:1040700081E090E09A8389839E878D879A8F898FCC
:104080001EA21DA2CE0185960E94E81FCE010B96AE
:104090000E94AF09CE0147960E94AF09CE018396D8
:1040A0000E94AF0910E0CC24CA94DC2C992493948C
:1040B000AA24A394B12C0E941E03811103C01925C8
:1040C0000E942103E0918301F0918401CE01C59605
:1040D00009958130D1F4EDA8FEA8EC14FD04A9F0F7
:1040E00089A99AA9E816F90629F40E94AA09670184
:1040F00011E00BC08BA99CA9E816F90629F40E94CF
:10410000AA09670110E001C06701CE010B960E9469
:10411000B309801758F189819A81892B81F460E075
:10412000CE0103960E942709BA82A9821130D1F4E8
:10413000CE010D960E94E81F1E861D8613C0113009
:1041400031F4CE0101960E94E81F1A8219828D85F2
:104150009E85892B39F460E0CE010F960E942709D5
:10416000BE86AD86CE010B960E94AF09CE01839626
:104170000E94B3098530C0F0898D9A8D892B41F456
:1041800060E0CE014B960E942709BA8EA98E08C026
:10419000113031F4CE0149960E94E81F1A8E198E13
:1041A000CE0183960E94AF090E941E038F3F09F43F
:1041B00082CF0E941E03882309F47DCF0E94190834
:1041C000E6960FB6F894DEBF0FBECDBFDF91CF915C
:1041D0001F910F91FF90EF90DF90CF90BF90AF9025
:1041E0009F9008954F925F927F928F929F92AF928D
:1041F000BF92CF92DF92EF92FF920F931F93CF93D4
:10420000DF93CDB7DEB7C355D1090FB6F894DEBF43
:104210000FBECDBF8FEF9FEF64969FAF8EAF6497B9
:1042200070907F01872D94E0799E800D112495E098
:10423000792E780E66E0CE018A5B9F4F0E9413258F
:1042400080E00E94DB076CE070E0CE0107960E94E0
:104250001D0860E370E0CE010F960E941D0860E02B
:104260007CE0CE014E960E941D0860E073E0CE0116
:1042700086960E941D0860E070E2CE01C5960E94FD
:104280001D0860E070E1CE01CD960E941D0821E07E
:1042900030E03A83298382E090E09C838B8343E083
:1042A00050E05E834D83398F288F9B8F8A8F5D8F7F
:1042B0004C8F38AB2FA79AAB89ABC12CD12C760190
:1042C00044244A94542CAA24A394B12C43E0842E71
:1042D000912CE0918301F0918401CE018E5A9F4F81
:1042E0000995813009F050C064960EAD1FAD6497FA
:1042F0000415150509F448C028968EAD9FAD289782
:104300000817190729F40E94AA091E821D823DC0C0
:104310002A968EAD9FAD2A970817190729F40E9497
:10432000AA09BE82AD8231C02C968EAD9FAD2C976E
:104330000817190729F40E94AA091D8E1C8E25C092
:104340002E968EAD9FAD2E970817190729F40E945F
:10435000AA09BD8EAC8E19C060968EAD9FAD6097D8
:104360000817190729F40E94AA091CAA1BAA0DC044
:1043700062968EAD9FAD62970817190731F40E94BF
:10438000AA09BCAAABAA01C082018D819E819C01B1
:104390002250310922303105D0F029813A81213073
:1043A0003105A9F49C838B839E828D821A821982A7
:1043B000009719F4CE01079604C0019721F4CE01AD
:1043C0000F960E942B08CE0147960E94AF098C8D54
:1043D0009D8D9C012250310922303105D0F0288D6D
:1043E000398D21303105A9F49B8F8A8F9D8E8C8E5B
:1043F000198E188E009719F4CE014E9604C00197BD
:1044000021F4CE0186960E942B08CE018E960E9442
:10441000AF098BA99CA99C0122503109223031059A
:10442000D8F02FA538A921303105B1F49AAB89AB6A
:104430009CAA8BAA18AA1FA6009719F4CE01C596AC
:1044400004C0019721F4CE01CD960E942B08CE0125
:104450008B5B9F4F0E94AF098FEFC81AD80AE80AFA
:10446000F80A98E8C91693E1D906E104F10419F4B1
:10447000C12CD12C760189819A810197E1F1C11477
:10448000D104E104F10471F48B819C81009719F44B
:10449000CE01079604C00197C9F4CE010F960E9481
:1044A0002B0814C084ECC81689E0D806E104F10496
:1044B00069F48B819C81009719F4CE01079604C0A2
:1044C000019721F4CE010F960E943508CE01479640
:1044D0000E94B309871578F0BA82A9828B819C81EA
:1044E000009719F4CE01079604C0019721F4CE017C
:1044F0000F960E943508888D998D0197E1F194EC13
:10450000C91699E0D906E104F10471F48A8D9B8DF6
:10451000009719F4CE014E9604C00197B9F4CE016C
:1045200086960E942B0812C0C114D104E104F10444
:1045300069F48A8D9B8D009719F4CE014E9604C0C4
:10454000019721F4CE0186960E943508CE018E9601
:104550000E94B309871578F0B98EA88E8A8D9B8D3D
:10456000009719F4CE014E9604C0019721F4CE01B4
:1045700086960E9435088FA598A90197E9F1C11484
:10458000D104E104F10471F489A99AA9009719F4FE
:10459000CE01C59604C00197C9F4CE01CD960E9404
:1045A0002B0814C084ECC81689E0D806E104F10495
:1045B00069F489A99AA9009719F4CE01C59604C097
:1045C000019721F4CE01CD960E943508CE018B5B78
:1045D0009F4F0E94B309871578F0B8AAAFA689A9A2
:1045E0009AA9009719F4CE01C59604C0019721F449
:1045F000CE01CD960E9435080E941E038F3F11F414
:10460000280167CE0E941E038823D1F30E94190857
:10461000CD5ADF4F0FB6F894DEBF0FBECDBFDF918E
:10462000CF911F910F91FF90EF90DF90CF90BF90AF
:10463000AF909F908F907F905F904F9008952F92B2
:104640003F924F925F926F927F928F929F92AF9222
:10465000BF92CF92DF92EF92FF920F931F93CF936F
:10466000DF93CDB7DEB7CD5BD1090FB6F894DEBFCF
:104670000FBECDBF8FEF9FEFC554DF4F9983888367
:10468000CB5BD040C354DF4F1882CD5BD04020902D
:104690007F01220C239423946AE1CE018D579F4F12
:1046A0000E941325CE0189549F4F0E944625CE01BA
:1046B00042960E946C25CE014F960E946C25CE0139
:1046C0008C960E946C25CE01C9960E946C25CE0165
:1046D0008A5B9F4F0E946C25CE018D5A9F4F0E948E
:1046E0006C25CE01805A9F4F0E946C253E012DE61D
:1046F000620E711CC3010E946C25CE0186589F4F2B
:104700000E946C255E0139E6A30EB11CFE013196B4
:1047100081E090E091838083938382833D96EA15C4
:10472000FB05C1F7CE0183549F4F0E94AF09812C36
:10473000912CCC24CA94DC2C9DE0392EEE24E394F9
:10474000F12C9FEF8916990661F0E0918301F091B9
:104750008401CE0185549F4F0995813009F008C12D
:1047600017C08E010F5F1F4FF80180819181892B47
:1047700049F482819381019729F46481C8010596E7
:104780000E942709035F1F4F0A151B0569F7DDCF3C
:10479000C554DF4F08811981CB5BD0400C151D0536
:1047A00009F4E6C0C954DF4F88819981C75BD040C6
:1047B0000817190781F40E94AA099E012B5F3F4F39
:1047C0006901C6010E946C253DE0C30ED11CC614D0
:1047D000D704B9F7CEC0C754DF4F88819981C95B30
:1047E000D0400817190779F40E94AA09CE0105964E
:1047F0006C01C6010E947A259DE0C90ED11CC61429
:10480000D704B9F7B6C0CD57DF4F88819981C35817
:10481000D04008171907D1F40E94AA09FE01319669
:104820006F01F601F382E28280819181892B39F058
:10483000118210826481C60105960E942709FDE05D
:10484000CF0ED11CCA14DB0461F793C0CB57DF4FE6
:1048500088819981C558D04008171907D9F40E945A
:10486000AA099E012F5F3F4F6901F601F382E282A0
:1048700080819181019739F0F182E08260E0C60188
:1048800005960E942709FDE0CF0ED11CCA14DB0457
:1048900061F76FC0FE01ED57FF4FC12CD12C848111
:1048A000958108171907F9F40E94AA093C9CC001D8
:1048B0003D9C900D1124E1E0F0E0EC0FFD1FE80FAE
:1048C000F91FF382E28220813181232B09F451C048
:1048D000118210820596648121E030E02C0F3D1F8B
:1048E000820F931F38C0868197810817190781F4BA
:1048F0000E94AA093C9CF0013D9CF00D112481E02E
:1049000090E08C0F9D1FE80FF91F1382128231C0B7
:10491000808591850817190709F50E94AA093C9C12
:10492000C0013D9C900D1124E1E0F0E0EC0FFD1F73
:10493000E80FF91FF382E2822081318121303105B5
:10494000C1F0F182E082059660E0E1E0F0E0EC0F7A
:10495000FD1F8E0F9F1F0E9427090BC02FEFC21A49
:10496000D20A369638E0C316D10409F098CF01C0B8
:104970008601CE0183549F4F0E94B309821550F1E6
:10498000CE0106962C01FE0131966F01F60182815F
:104990009381892B89F480819181892B21F4F18283
:1049A000E08260E006C0F60111821082F2013197C8
:1049B0006081C2010E942709FDE0CF0ED11C2DE0CD
:1049C000420E511CCA14DB0409F7CE0183549F4FD9
:1049D0000E94AF090E941E038F3F29F48FEF881AAF
:1049E000980A6801AECE0E941E038823B9F30E9484
:1049F0001908C354DF4F0FB6F894DEBF0FBECDBF0A
:104A0000DF91CF911F910F91FF90EF90DF90CF90AA
:104A1000BF90AF909F908F907F906F905F904F90DE
:104A20003F902F900895DF92EF92FF920F931F9384
:104A3000CF93DF931F92CDB7DEB7609382017C01E5
:104A4000D12C0D2D000FD616C1F010E0C8014296F2
:104A500069830E94CB0090E0F70191838083C801B5
:104A600043960E94CB00F70120813181382B21939E
:104A700031937F01D3946981E4CF0F90DF91CF917F
:104A80001F910F91FF90EF90DF900895CF93DF93E8
:104A9000EC0187E090E00E94CB0090E0998388834E
:104AA00088E090E00E94CB0028813981382B39833F
:104AB000288389E090E00E94CB0090E09B838A836A
:104AC0008AE090E00E94CB002A813B81382B3B8317
:104AD0002A83DF91CF910895FC012091800130E07D
:104AE00020953095220F922F990F990F290F225957
:104AF00020830895FC012091810130E020953095BC
:104B0000220F922F990F990F290F22592083089570
:104B100060917C0181E090E00C94B90060917D018E
:104B200082E090E00C94B90060917E0183E090E017
:104B30000C94B90060917F0184E090E00C94B9007E
:104B40006091800185E090E00C94B9006091810152
:104B500086E090E00C94B900CF93DF9310927F0130
:104B600010927E0110927D0110927C0110928001C2
:104B7000109281010E9488250E948E250E94942512
:104B80000E949A250E94A0250E94A6256FEF87E02B
:104B900090E00E94B9006FEF88E090E00E94B900B9
:104BA0006FEF89E090E00E94B9006FEF8AE090E03B
:104BB0000E94B900C2E1D0E06FEFCE010E94B900BF
:104BC0002196C637D105C1F7DF91CF910895CF92D5
:104BD000DF92EF92FF92CF93DF93D82F80E00E9475
:104BE00018035D98C12CD12C7601C0E00E941E03F1
:104BF000882341F18FEFC81AD80AE80AF80A80EF33
:104C0000C81689E4D80682E0E806F10411F45D9A3A
:104C1000EDCF80EEC81683E9D80684E0E806F104FB
:104C200041F45D98CF5FCD1709F3C12CD12C7601EB
:104C3000DDCF80E4C81682E4D8068FE0E806F104F0
:104C4000A9F6D0CF5D98DF91CF91FF90EF90DF90E4
:104C5000CF90089584B7877F84BF8091600088617A
:104C600080936000109260000E94F40288E00E942D
:104C700018038CEA95E20E942A030E94840910928C
:104C8000820181E090E00E94CB0080937C0182E071
:104C900090E00E94CB0080937D0183E090E00E9431
:104CA000CB0080937E0184E090E00E94CB00809353
:104CB0007F0185E090E00E94CB008093800186E038
:104CC00090E00E94CB008093810180917E010E9440
:104CD000DB0780917D01811105C00E94EC0384E413
:104CE00094E004C00E94260683EB96E09093840132
:104CF000809383010895CF93DF93CDB7DEB7669796
:104D00000FB6F894DEBF0FBECDBF28985F985D9AAE
:104D1000E0917C018E2F90E08B30910530F5FC0105
:104D2000EC5CFF4F0C94B9280E94F70921C00E9447
:104D30007B0C1EC00E94AC0E1BC00E941E1118C02E
:104D40000E947F1315C00E94211612C00E9465198F
:104D50000FC00E948F1C0CC00E94ED1F09C00E9452
:104D6000F22006C00E941F2303C00E94AC25DEC0B3
:104D700028985F985D980E941E0390E0FC0131978F
:104D8000E830F10510F6E15CFF4F0C94B9281E8A5B
:104D90001D8A80E00E9418035D98812C912C00E010
:104DA00010E0712C80918201781608F0BFC00E943B
:104DB0002103C12CD12C7601612CA72CB12C8FEFB3
:104DC000A81AB80A0E941E03811112C05D980E94A1
:104DD000AA090E941E03811144C06FEFC8014296C8
:104DE0000E94B9006FEFC80143960E94B90049C004
:104DF000E0918301F0918401CE01459609958111DE
:104E0000E5CFAFEFCA1ADA0AEA0AFA0AB0EFCB1610
:104E1000B9E4DB06B2E0EB06F10411F45D9AD2CFFF
:104E2000E0EECE16E3E9DE06E4E0EE06F10459F426
:104E30005D986394862D90E08A159B0519F2C12C2C
:104E4000D12C7601BFCFF0E4CF16F2E4DF06FFE00D
:104E5000EF06F10409F0B6CFC12CD12C7601612CFC
:104E6000B1CF6D897E896815790571F0C8014296C8
:104E70000E94B9006E89C80143960E94B9008D88CE
:104E80009E880E5F1F4F01C07A9473948BCF84E18C
:104E9000EBE4F1E0DE01119601900D928A95E1F7C5
:104EA0008E010F5F1F4F7E01A3E1EA0EF11CF80196
:104EB000DF0195B180818095892385B9329698B1BB
:104EC00011968C918095892388B9EE15FF0581F79D
:104ED00080E00E94180395B18981892B85B998B12A
:104EE0008A81892B88B90E941E038111FCCF0E9400
:104EF0002103F80195B180818095892385B90E5FE2
:104F00001F4F98B181818095892388B995B1F801A7
:104F10008081892B85B998B18181892B88B90E153B
:104F20001F0509F70E941E038111FCCF0E94AF28C4
:104F300088E895E20E94250380917C018F5F0E94A2
:104F4000E72580917C018F5F80937C018B30A0F3FB
:104F500010927C01F1CF8EE895E20E9425038091AA
:104F60007D018F5F0E94E72580917D018F5F809397
:104F70007D018230A0F310927D01F1CF84E995E2AA
:104F80000E94250380917E018F5F0E94E72580911A
:104F90007E018F5F80937E018A30A0F310927E01A4
:104FA000F1CF8AE995E20E94250380917F018F5F0E
:104FB0000E94E72580917F018F5F80937F018A3077
:104FC000A0F310927F01F1CF80E00E94DB076CE339
:104FD0007FE3CE0101960E94410880EA95E20E949B
:104FE00025036091800170E060957095660F862FB3
:104FF000880F880F680F6259CE0101960E94F80849
:10500000809180018F5F0E94E725809180018F5FF2
:10501000809380018A3028F310928001E2CF1E8AAB
:105020001D8A80E00E9418035D98812C912C00E07D
:1050300010E0712C0E942103C12CD12C7601612C2F
:10504000A72CB12C8FEFA81AB80A0E941E03811159
:1050500009C05D980E94AA090E941E03882309F4D2
:105060004AC039C0E0918301F0918401CE01459698
:1050700009958111EECFAFEFCA1ADA0AEA0AFA0AE5
:10508000B0EFCB16B9E4DB06B2E0EB06F10411F4A5
:105090005D9ADBCFE0EECE16E3E9DE06E4E0EE0655
:1050A000F10459F45D986394862D90E08A159B0570
:1050B00061F2C12CD12C7601C8CFF0E4CF16F2E416
:1050C000DF06FFE0EF06F10409F0BFCFC12CD12CC1
:1050D0007601612CBACF6D897E896815790571F0EA
:1050E000C80107960E94B9006E89C80108960E94FF
:1050F000B9008D889E880E5F1F4F01C07A9473940B
:1051000081E0871508F096CF80E00E94DB076CE312
:105110007FE3CE0101960E94410886EA95E20E9453
:1051200025036091810170E060957095660F862F70
:10513000880F880F680F6259CE0101960E94F80807
:10514000809181018F5F0E94E725809181018F5FAF
:10515000809381018A3028F310928101E2CF8091FF
:105160006000886080936000FFCF0E942A260E9422
:105170007B26EE0FFF1F0590F491E02D0994F89423
:02518000FFCF5F
:1051820066006600DA00DA00DA00510151015101CD
:105192005101EF01EF01EF010000000001010101E7
:1051A20001020202030304040506060708090A0CA9
:1051B2000D0F111315181B1E22262A2F353B424AAA
:1051C200535D68748291A2B5CBE2FD040008001021
:1051D200002000000800040002000100200010006E
:00000001FF
